:1080000075560075570075502075512075522075B2
:1080100053007F00754000755800756B01756A004C
:10802000856A90E8540F940A401D2430F560E954A5
:108030000F940A40162430F561EB540F940A400F58
:108040002430F562028053240A80DF240A80E6246B
:108050000A80ED1280AFE553B403F805587553005C
:10806000755020755120755220E55675560075578C
:1080700000B40307756A0012809522E56A256BF546
:108080006A856A90E56B23F56BE558B408C5756A97
:10809000F012809522856A90E56AF4F56A1280A252
:1080A00080F3791F7AFF7BFFDBFEDAFAD9F622C074
:1080B000D0D2D4D2D3790074EFF8091280ED541FD6
:1080C000641F7007E8D31350EC80EE7A0013400869
:1080D0000A80FA75400180F6EA75F005A42912803D
:1080E000F6D0D08F40F541B54026AF412290FFF049
:1080F000F090FFF1E02283224E4E4E4E4E4E4E4EF9
:108100004E4E38394E4E4E343536374E303132338E
:10811000754000FE7520381281EB75200E1281EB40
:108120007520011281EB7520061281EB7522017515
:1081300023021281D174502553F98E54A754128111
:10814000CB0553E554B44E1112816675530075503A
:10815000207551207552208091E553B4038C128113
:10816000DE12819780841281DE12825590FFE174C5
:1081700057F012825590FFE17452F012825590FF31
:10818000E1744FF012825590FFE1744EF012825567
:1081900090FFE17447F022755500856070E570B579
:1081A000500505560281B9B5510505560281B9B58C
:1081B000520505560281B90557055574602555F9D4
:1081C0008770E555B403D6128211227D001281F525
:1081D0002274802406F5201281EB0281DD2274C016
:1081E0002404F5201281EB0281EA2212825590FFCD
:1081F000E0E520F02212825590FFE1E550F0128276
:108200005590FFE1E551F012825590FFE1E552F003
:108210002212825590FFE17453F012825590FFE1D3
:10822000743AF012825590FFE174302556F01282B4
:108230005590FFE17420F012825590FFE17442F0F6
:1082400012825590FFE1743AF012825590FFE1746A
:10825000302557F02290FFE2E020E7F9223031325A
:10826000333435363738394E2053423A57524F4E11
:0182700047C6
:00000001FF
