:10800000D2D3D2D479007A0078001280B71280C21D
:108010001280CD752020752100752207E52214F508
:1080200022B40016752301128056D520F775202042
:10803000E52104F521B4071080D97523021280567A
:10804000D520F775202080D4752304128056D520C2
:10805000F775202080DA78027B0012808DE523B44A
:10806000020612809B028074B404061280A902806A
:1080700074B401181280C21280CD88247A0078006E
:108080001280C2A824C3E833F8B480CE2290809531
:10809000EB93FA0B227E4040404040852224C3EA05
:1080A00013FAD522F985242222852124C3EA33FA42
:1080B000D521F98524212290FFC5E9F090FFC7E87A
:1080C000F02290FFC6EAF090FFC7E8F0227F017E21
:0680D000CFDEFEDFFA2204
:00000001FF
