:108000007532007533007534007535007537001210
:1080100080697A0879FF78E0D8FED9FADAF6ACD927
:108020007B02DBFEDCFABD590CBE5914BF232412BF
:108030008069028012ED2401D4FD12808902801231
:10804000EE2401D4FE12807C128084740012808998
:10805000028012EF2401D4FF12807A12807F740014
:10806000128084128089028012128078740012803B
:108070007F128084128089227F007E007D00229002
:10808000FFC3F02290FFC2F02290FFC1F012809156
:1080900022C083C082C0E0C0F0C001C002C003C0E3
:1080A00004C005C006C0071280C1D007D006D005A5
:1080B000D004D003D002D001D0F0D0E0D082D08361
:1080C0002275203812847E75200E12847E75200160
:1080D00012847E75200612847E8F2A8E2B8D2CE5CD
:1080E00032B400030280FAB40103028277B41003B1
:1080F0000283E5B411030283E8008F338E348D359B
:1081000075220175230675200612847E1284609004
:10811000849A858225858326752402E52A75F010C8
:1081200084F52885F02985282712843905231284AF
:1081300060852927128439052312846075270A1265
:108140008439752309128460E52B75F01084F528B5
:1081500085F0298528271284390523128460852912
:1081600027128439052312846075270A1284397511
:10817000230C128460E52C75F01084F52885F02915
:1081800085282712843905231284608529271284C3
:1081900039E537B4001B0523052312846075270CCD
:1081A000128439052312846075270D1284390281E7
:1081B000C90523052312846075270C128439052311
:1081C00012846075270F12843975220275230612F6
:1081D0008460752F10753015753120E52F75F00A04
:1081E00084F52885F02985282712843905231284EF
:1081F00060852927128439052312846075270B12A4
:108200008439752309128460E53075F00A84F528F5
:1082100085F0298528271284390523128460852951
:1082200027128439052312846075270B128439754F
:10823000230C128460E53175F00A84F52885F02955
:108240008528271284390523128460852927128402
:10825000390523052312846075270F128439C083E2
:10826000C082C0E0C0F0C001C002C003C004C005AD
:10827000C006C00702840275220175230675200618
:1082800012847E12846090849A8582258583267567
:108290002402E53375F01084F52885F02985282718
:1082A0001284390523128460852927128439052315
:1082B00012846075270A128439752309128460E5D7
:1082C0003475F01084F52885F02985282712843923
:1082D00005231284608529271284390523128460BE
:1082E00075270A12843975230C128460E53575F000
:1082F0001084F52885F02985282712843905231252
:108300008460852927128439E537B4001B052305CD
:108310002312846075270C1284390523128460753A
:10832000270D1284390283400523052312846075CA
:10833000270C128439052312846075270F128439A3
:10834000752202752306128460E52F75F00A84F504
:108350002885F02985282712843905231284608511
:108360002927128439052312846075270B1284395A
:10837000752309128460E53075F00A84F52885F0CC
:10838000298528271284390523128460852927121C
:108390008439052312846075270B12843975230CE8
:1083A000128460E53175F00A84F52885F029852866
:1083B0002712843905231284608529271284390500
:1083C000230523128460752710128439C083C0826C
:1083D000C0E0C0F0C001C002C003C004C005C006B8
:1083E000C0070284020283EB0283EBD007D006D0E1
:1083F00005D004D003D002D001D0F0D0E0D082D09C
:108400008322C0D0D2D4D2D3790074EFF809128479
:10841000AF541F641F7007E8D313501980EE7A0021
:108420001340030A80FAEA75F005A4291285151293
:1084300084BA028435D0D080B2AD278525828526C6
:1084400083ED93F5211284880DED22AD27852582D9
:10845000852683ED93F5211284880DEDB524EE2257
:10846000E522B4010C74802523F52012847E028459
:108470007DB4020974C02523F52012847E22128463
:108480009290FFE0E520F02212849290FFE1E52136
:10849000F02290FFE2E020E7F92230313233343528
:1084A000363738393A2D44434F524D4443524D00EC
:1084B000F890FFF0F090FFF1E02290FFC1F0F53668
:1084C000E532B4000BE536B40B4A7532010285146F
:1084D000B4013BE536B40B03753200B40C0505332B
:1084E000028514B40D050534028514B40E05053556
:1084F000028514B41705052F028514B4160505303E
:10850000028514B415050531028514028514B410D2
:1085100000B4110022832217161514130C0D0E0F30
:0F8520001108090A0B12040506071000010203D7
:00000001FF
