:108000007532007533007534007535007537001210
:1080100080697A0879FF78E0D8FED9FADAF6ACD927
:108020007B02DBFEDCFABD590CBE5914BF232412BF
:108030008069028012ED2401D4FD12808902801231
:10804000EE2401D4FE12807C128084740012808998
:10805000028012EF2401D4FF12807A12807F740014
:10806000128084128089028012128078740012803B
:108070007F128084128089227F007E007D00229002
:10808000FFC3F02290FFC2F02290FFC1F012809156
:1080900022C083C082C0E0C0F0C001C002C003C0E3
:1080A00004C005C006C0071280D0D007D006D00596
:1080B000D004D003D002D001D0F0D0E0D082D08361
:1080C000E500B40109AF33AE34AD357500000022D0
:1080D0007520381284FE75200E1284FE7520011260
:1080E00084FE7520061284FE8F2A8E2B8D2CE5329D
:1080F000B40003028109B40103028286B4100302B2
:1081000083F7B41103028431008F338E348D3575BB
:1081100022017523067520061284FE1284E09085E4
:108120001A858225858326752402E52A75F0108438
:10813000F52885F0298528271284B905231284E0C3
:108140008529271284B905231284E075270A128431
:10815000B97523091284E0E52B75F01084F52885A4
:10816000F0298528271284B905231284E085292760
:108170001284B905231284E075270A1284B9752385
:108180000C1284E0E52C75F01084F52885F0298523
:1081900028271284B905231284E08529271284B97F
:1081A000E537B4001B052305231284E075270C1264
:1081B00084B905231284E075270D1284B90281D891
:1081C000052305231284E075270C1284B9052312B8
:1081D00084E075270F1284B9752202752306128474
:1081E000E0752F10753015753120E52F75F00A8474
:1081F000F52885F0298528271284B905231284E003
:108200008529271284B905231284E075270B12846F
:10821000B97523091284E0E53075F00A84F52885E4
:10822000F0298528271284B905231284E08529279F
:108230001284B905231284E075270B1284B97523C3
:108240000C1284E0E53175F00A84F52885F0298563
:1082500028271284B905231284E08529271284B9BE
:10826000052305231284E075270F1284B9C083C04B
:1082700082C0E0C0F0C001C002C003C004C005C09D
:1082800006C0070284827522017523067520061236
:1082900084FE1284E090851A8582258583267524C4
:1082A00002E53375F01084F52885F029852827121A
:1082B00084B905231284E08529271284B905231285
:1082C00084E075270A1284B97523091284E0E53425
:1082D00075F01084F52885F0298528271284B905C2
:1082E000231284E08529271284B905231284E075BE
:1082F000270A1284B975230C1284E0E53575F01055
:1083000084F52885F0298528271284B9052312844D
:10831000E08529271284B9E537B4001B052305231E
:108320001284E075270C1284B905231284E07527A6
:108330000D1284B902834F052305231284E07527AB
:108340000C1284B905231284E075270F1284B975C5
:1083500022027523061284E0E52F75F00A84F528C1
:1083600085F0298528271284B905231284E0852900
:10837000271284B905231284E075270B1284B9757E
:1083800023091284E0E53075F00A84F52885F02988
:108390008528271284B905231284E08529271284B1
:1083A000B905231284E075270B1284B975230C12CA
:1083B00084E0E53175F00A84F52885F029852827C1
:1083C0001284B905231284E08529271284B9052374
:1083D00005231284E07527101284B9750001C0834B
:1083E000C082C0E0C0F0C001C002C003C004C0052C
:1083F000C006C00702848275220175230575200618
:108400001284FE1284E090852B8582258583267553
:10841000270075240A1284CBC083C082C0E0C0F05C
:10842000C001C002C003C004C005C006C00702846A
:10843000827522017523017520061284FE1284E0E4
:108440009085428582258583267527007524121222
:1084500084CBC083C082C0E0C0F0C001C002C003B2
:10846000C004C005C006C007028482D007D006D071
:1084700005D004D003D002D001D0F0D0E0D082D01B
:108480008322C0D0D2D4D2D3790074EFF8091285F8
:1084900054541F641F7007E8D313501980EE7A00FC
:1084A0001340030A80FAEA75F005A4291285FA122E
:1084B000855F0284B5D0D080B2AD27852582852620
:1084C00083ED93F5211285080DED22AD27852582D8
:1084D000852683ED93F5211285080DEDB524EE2256
:1084E000E522B4010C74802523F5201284FE028459
:1084F000FDB4020974C02523F5201284FE221285E2
:108500001290FFE0E520F02212851290FFE1E521B4
:10851000F02290FFE2E020E7F922303132333435A7
:10852000363738393A2D44434F524D456E74657293
:10853000205057212152452D456E746572205057A9
:108540002121446F6F72204C6F636B20456E746500
:108550007220505700F890FFF0F090FFF1E0229069
:10856000FFC1F0F536E532B40014E536B40B0375FF
:108570003201B40A067532100285F90285F9B40198
:1085800044E536B40B03753200B40A0675321002A6
:1085900085F9B40C0505330285F9B40D05053402DF
:1085A00085F9B40E0505350285F9B41705052F02C6
:1085B00085F9B4160505300285F9B41505053102B3
:1085C00085F90285F9B41017E536B40B067532004B
:1085D0000285F9B40A067532110285F90285F9B4EB
:1085E0001117E536B40B067532000285F9B40A0698
:1085F0007532100285F90285F922832217161514A7
:10860000130C0D0E0F1108090A0B120405060710B2
:048610000001020360
:00000001FF
