:108000007532007533007534007535001280667A5C
:108010000879FF78E0D8FED9FADAF6ACD97B02DB32
:10802000FEDCFABD590CBE5914BF2324128066022F
:10803000800FED2401D4FD12808602800FEE240112
:10804000D4FE128079128081740012808602800F23
:10805000EF2401D4FF12807712807C74001280819B
:1080600012808602800F128075740012807C12804C
:1080700081128086227F007E007D002290FFC3F067
:108080002290FFC2F02290FFC1F012808E22C083A6
:10809000C082C0E0C0F0C001C002C003C004C0057F
:1080A000C006C0071280BED007D006D005D004D0CD
:1080B00003D002D001D0F0D0E0D082D0832275204E
:1080C000381283E575200E1283E57520011283E5D1
:1080D0007520061283E58F2A8E2B8D2CE532B40095
:1080E000030280F7B4010302822FB41003028361FC
:1080F000B41103028364008F338E348D35752201F1
:108100007523067520061283E51283C790840185C6
:108110008225858326752402E52A75F01084F528CA
:1081200085F0298528271283B505231283C7852961
:10813000271283B505231283C775270A1283B575E5
:1081400023091283C7E52B75F01084F52885F029E3
:108150008528271283B505231283C7852927128313
:10816000B505231283C775270A1283B575230C1230
:1081700083C7E52C75F01084F52885F0298528271C
:108180001283B505231283C78529271283B575226B
:10819000027523061283C7752F10753006753115C9
:1081A000E52F75F00A84F52885F0298528271283A4
:1081B000B505231283C78529271283B505231283AA
:1081C000C775270B1283B57523091283C7E5307570
:1081D000F00A84F52885F0298528271283B5052320
:1081E0001283C78529271283B505231283C77527F4
:1081F0000B1283B575230C1283C7E53175F00A8421
:10820000F52885F0298528271283B505231283C711
:108210008529271283B5C083C082C0E0C0F0C001A9
:10822000C002C003C004C005C006C00702837E753B
:1082300022017523067520061283E51283C79084F8
:1082400001858225858326752402E53375F0108427
:10825000F52885F0298528271283B505231283C7C1
:108260008529271283B505231283C775270A128330
:10827000B57523091283C7E53475F01084F5288598
:10828000F0298528271283B505231283C78529275E
:108290001283B505231283C775270A1283B5752388
:1082A0000C1283C7E53575F01084F52885F0298513
:1082B00028271283B505231283C78529271283B582
:1082C0007522027523061283C7752F107530067547
:1082D0003115E52F75F00A84F52885F029852827C2
:1082E0001283B505231283C78529271283B5052379
:1082F0001283C775270B1283B57523091283C7E54F
:108300003075F00A84F52885F0298528271283B571
:1083100005231283C78529271283B505231283C736
:1083200075270B1283B575230C1283C7E53175F0E1
:108330000A84F52885F0298528271283B50523129C
:1083400083C78529271283B5C083C082C0E0C0F0EF
:10835000C001C002C003C004C005C006C00702833C
:108360007E028367028367D007D006D005D004D091
:1083700003D002D001D0F0D0E0D082D08322C0D090
:10838000D2D4D2D3790074EFF80912840D541F644B
:108390001F7007E8D313501980EE7A001340030AC8
:1083A00080FAEA75F005A429128433128418028336
:1083B000B1D0D080B2AD27852582852683ED93F597
:1083C000211283EF0DED22E522B4010C74802523E8
:1083D000F5201283E50283E4B4020974C02523F575
:1083E000201283E5221283F990FFE0E520F02212AB
:1083F00083F990FFE1E521F02290FFE2E020E7F928
:1084000022303132333435363738393A2D00F8904E
:10841000FFF0F090FFF1E02290FFC1F0F536B40BD1
:1084200011E532B400067532010284327532000261
:10843000843222832217161514130C0D0E0F110807
:0D844000090A0B12040506071000010203D3
:00000001FF
