:1080000075320075330075340075350075370075AD
:10801000010112806C7A0879FF78E0D8FED9FADA8B
:10802000F6ACD97B02DBFEDCFABD590CBE5914BF9D
:10803000232412806C028015ED2401D4FD12808C63
:10804000028015EE2401D4FE12807F128087740016
:1080500012808C028015EF2401D4FF12807D1280E3
:1080600082740012808712808C02801512807B74CB
:108070000012808212808712808C227F007E007D19
:10808000002290FFC3F02290FFC2F02290FFC1F0C7
:1080900012809422C083C082C0E0C0F0C001C00240
:1080A000C003C004C005C006C0071280D3D007D0EB
:1080B00006D005D004D003D002D001D0F0D0E0D05B
:1080C00082D083E500B40109AF33AE34AD3575001D
:1080D00000002275203812851D75200E12851D7531
:1080E000200112851D75200612851D8F2A8E2B8D6D
:1080F0002CE532B4000302810CB40103028289B47E
:1081000010030283FAB41103028450008F338E34BB
:108110008D3575220175230675200612851D128482
:10812000FF908539858225858326752402E52A7589
:10813000F01084F52885F0298528271284D8052396
:108140001284FF8529271284D805231284FF7527FE
:108150000A1284D87523091284FFE52B75F0108468
:10816000F52885F0298528271284D805231284FF55
:108170008529271284D805231284FF75270A1284C3
:10818000D875230C1284FFE52C75F01084F5288532
:10819000F0298528271284D805231284FF852927F2
:1081A0001284D8E537B4001B052305231284FF751C
:1081B000270C1284D805231284FF75270D1284D84A
:1081C0000281DB052305231284FF75270C1284D856
:1081D00005231284FF75270F1284D8752202752398
:1081E000061284FF752F10753015753120E52F7537
:1081F000F00A84F52885F0298528271284D80523DC
:108200001284FF8529271284D805231284FF75273D
:108210000B1284D87523091284FFE53075F00A84A7
:10822000F52885F0298528271284D805231284FF94
:108230008529271284D805231284FF75270B128401
:10824000D875230C1284FFE53175F00A84F5288572
:10825000F0298528271284D805231284FF85292731
:108260001284D8052305231284FF75270F1284D8A2
:10827000C083C082C0E0C0F0C001C002C003C0041F
:10828000C005C006C0070284A175220175230675CA
:10829000200612851D1284FF9085398582258583ED
:1082A00026752402E53375F01084F52885F02985BC
:1082B00028271284D805231284FF8529271284D801
:1082C00005231284FF75270A1284D87523091284A6
:1082D000FFE53475F01084F52885F02985282712EC
:1082E00084D805231284FF8529271284D8052312F8
:1082F00084FF75270A1284D875230C1284FFE53594
:1083000075F01084F52885F0298528271284D80572
:10831000231284FF8529271284D8E537B4001B0572
:108320002305231284FF75270C1284D80523128499
:10833000FF75270D1284D80283520523052312846A
:10834000FF75270C1284D805231284FF75270F129E
:1083500084D87522027523061284FFE52F75F00A72
:1083600084F52885F0298528271284D805231284CE
:10837000FF8529271284D805231284FF75270B1245
:1083800084D87523091284FFE53075F00A84F52836
:1083900085F0298528271284D805231284FF852992
:1083A000271284D805231284FF75270B1284D875F1
:1083B000230C1284FFE53175F00A84F52885F02935
:1083C0008528271284D805231284FF852927128443
:1083D000D8052305231284FF7527101284D8750051
:1083E00001C083C082C0E0C0F0C001C002C003C0B1
:1083F00004C005C006C0070284A1752201752305CB
:1084000075200612851D1284FF90854A8582258578
:10841000832675270075240A1284EA7522027523C3
:10842000071284FF90857385822585832675270032
:108430007404F5241284EAC083C082C0E0C0F0C096
:1084400001C002C003C004C005C006C0070284A169
:1084500075220175230175200612851D1284FF9077
:1084600085618582258583267527007524121284EF
:10847000EAC083C082C0E0C0F0C001C002C003C037
:1084800004C005C006C0070284A1D007D006D005ED
:10849000D004D003D002D001D0F0D0E0D082D0837D
:1084A00022C0D0D2D4D2D3790074EFF809128577E4
:1084B000541F641F7007E8D313501980EE7A00131D
:1084C00040030A80FAEA75F005A429128652128543
:1084D000820284D4D0D080B2AD27852582852683C0
:1084E000ED93F5211285270DED22AD278525828597
:1084F0002683ED93F5211285270DEDB524EE22E5B7
:1085000022B4010C74802523F52012851D02851CE0
:10851000B4020974C02523F52012851D221285316D
:1085200090FFE0E520F02212853190FFE1E521F097
:108530002290FFE2E020E7F9223031323334353641
:108540003738393A2D44434F524D456E7465722089
:108550005057212152452D456E7465722050572188
:1085600021446F6F72204C6F636B20456E7465728F
:108570002050572A2A2A2A00F890FFF0F090FFF1A5
:10858000E02290FFC1F0F536E532B40014E536B4D0
:108590000B03753201B40A06753210028651028649
:1085A00051B40144E536B40B03753200B40A0675C4
:1085B0003210028651B40C050533028651B40D0504
:1085C0000534028651B40E050535028651B41705EF
:1085D000052F028651B416050530028651B41505E3
:1085E0000531028651028651B4104CE536B40B06B3
:1085F000753200028651B40A0675321102865105A1
:1086000001E501B40107E536F502028651E501B442
:108610000207E536F503028651E501B40307E536A6
:10862000F504028651E501B40407E536F505028636
:1086300051750100028651B41117E536B40B067569
:108640003200028651B40A06753210028651028643
:108650005122832217161514130C0D0E0F11080941
:0C8660000A0B12040506071000010203BB
:00000001FF
