:1080000075320012805D7A0879FF78E0D8FED9FADF
:10801000DAF6ACD97B02DBFEDCFABD590CBE591492
:10802000BF232412805D028006ED2401D4FD12805E
:108030007D028006EE2401D4FE12807012807874D6
:108040000012807D028006EF2401D4FF12806E12A0
:108050008073740012807812807D02800612806C1A
:10806000740012807312807812807D227F007E005F
:108070007D002290FFC3F02290FFC2F02290FFC14A
:10808000F012808522C083C082C0E0C0F0C001C071
:1080900002C003C004C005C006C0071280B5D007E7
:1080A000D006D005D004D003D002D001D0F0D0E06B
:1080B000D082D083227520381282AB75200E1282B6
:1080C000AB7520011282AB7520061282AB8F2A8E0F
:1080D0002B8D2CE532B400030280EEB40103028242
:1080E00039B4100302823CB4110302823F007522AE
:1080F000017523067520061282AB12828D9082C70D
:10810000858225858326752402E52A75F01084F57D
:108110002885F02985282712827B052312828D85E8
:10812000292712827B052312828D75270A12827BF2
:1081300075230912828DE52B75F01084F52885F0E2
:108140002985282712827B052312828D85292712F3
:10815000827B052312828D75270A12827B75230C80
:1081600012828DE52C75F01084F52885F02985287C
:108170002712827B052312828D85292712827B7527
:10818000220275230612828D752F10753006753107
:1081900015E52F75F00A84F52885F0298528271222
:1081A000827B052312828D85292712827B0523126B
:1081B000828D75270B12827B75230912828DE53023
:1081C00075F00A84F52885F02985282712827B0519
:1081D0002312828D85292712827B052312828D75B9
:1081E000270B12827B75230C12828DE53175F00A04
:1081F00084F52885F02985282712827B05231282A1
:108200008D85292712827BC083C082C0E0C0F0C068
:1082100001C002C003C004C005C006C007028244FA
:10822000D007D006D005D004D003D002D001D0F0C2
:10823000D0E0D082D0830282420282420282420295
:1082400082420022C0D0D2D4D2D3790074EFF80990
:108250001282D3541F641F7007E8D313501980EEA5
:108260007A001340030A80FAEA75F005A429128205
:10827000E31282DE028277D0D080A5AD27852582E9
:10828000852683ED93F5211282B50DED22E522B40A
:10829000010C74802523F5201282AB0282AAB4025D
:1082A0000974C02523F5201282AB221282BF90FFF1
:1082B000E0E520F0221282BF90FFE1E521F022905C
:1082C000FFE2E020E7F922303132333435363738F7
:1082D000393A2D00F890FFF0F090FFF1E02290FF86
:1082E000C1F022832217161514130C0D0E0F11085E
:0D82F000090A0B1204050607100001020325
:00000001FF
