:1080000012800375203812808675200E12808675C6
:108010002001128086752006128086752201752344
:10802000061280687520061280869080A2858225BF
:108030008583267524081280537522027523061243
:1080400080689080AA858225858326752408128001
:108050005380FE7D00852582852683ED93F52112D0
:1080600080900DEDB524EE22E522B4010C7480253C
:1080700023F520128086028085B4020974C025236E
:10808000F5201280862212809A90FFE0E520F022EF
:1080900012809A90FFE1E521F02290FFE2E020E7D4
:1080A000F92231363A33303A323531362D30362DE9
:0C80B00031303031323334353637383956
:00000001FF
