:108000007532007533007534007535007537001210
:1080100080697A0879FF78E0D8FED9FADAF6ACD927
:108020007B02DBFEDCFABD590CBE5914BF232412BF
:108030008069028012ED2401D4FD12808902801231
:10804000EE2401D4FE12807C128084740012808998
:10805000028012EF2401D4FF12807A12807F740014
:10806000128084128089028012128078740012803B
:108070007F128084128089227F007E007D00229002
:10808000FFC3F02290FFC2F02290FFC1F012809156
:1080900022C083C082C0E0C0F0C001C002C003C0E3
:1080A00004C005C006C0071280C1D007D006D005A5
:1080B000D004D003D002D001D0F0D0E0D082D08361
:1080C000227520381284EC75200E1284EC75200184
:1080D0001284EC7520061284EC8F2A8E2B8D2CE5F1
:1080E00032B400030280FAB40103028277B41003B1
:1080F0000283E5B4110302841F008F338E348D3563
:108100007522017523067520061284EC1284CE9028
:108110008508858225858326752402E52A75F01059
:1081200084F52885F0298528271284A70523128441
:10813000CE8529271284A705231284CE75270A121B
:1081400084A77523091284CEE52B75F01084F528D9
:1081500085F0298528271284A705231284CE852936
:10816000271284A705231284CE75270A1284A775C7
:10817000230C1284CEE52C75F01084F52885F029A7
:108180008528271284A705231284CE8529271284E7
:10819000A7E537B4001B052305231284CE75270CF1
:1081A0001284A705231284CE75270D1284A702819D
:1081B000C9052305231284CE75270C1284A7052335
:1081C0001284CE75270F1284A7752202752306121A
:1081D00084CE752F10753015753120E52F75F00A96
:1081E00084F52885F0298528271284A70523128481
:1081F000CE8529271284A705231284CE75270B125A
:1082000084A77523091284CEE53075F00A84F52819
:1082100085F0298528271284A705231284CE852975
:10822000271284A705231284CE75270B1284A77505
:10823000230C1284CEE53175F00A84F52885F029E7
:108240008528271284A705231284CE852927128426
:10825000A7052305231284CE75270F1284A7C08398
:10826000C082C0E0C0F0C001C002C003C004C005AD
:10827000C006C007028470752201752306752006AA
:108280001284EC1284CE908508858225858326751C
:108290002402E53375F01084F52885F02985282718
:1082A0001284A705231284CE8529271284A70523CB
:1082B0001284CE75270A1284A77523091284CEE58D
:1082C0003475F01084F52885F0298528271284A7B5
:1082D00005231284CE8529271284A705231284CE74
:1082E00075270A1284A775230C1284CEE53575F024
:1082F0001084F52885F0298528271284A7052312E4
:1083000084CE8529271284A7E537B4001B052305F1
:10831000231284CE75270C1284A705231284CE75F0
:10832000270D1284A7028340052305231284CE75EE
:10833000270C1284A705231284CE75270F1284A759
:108340007522027523061284CEE52F75F00A84F596
:108350002885F0298528271284A705231284CE8535
:1083600029271284A705231284CE75270B1284A710
:108370007523091284CEE53075F00A84F52885F05E
:10838000298528271284A705231284CE8529271240
:1083900084A705231284CE75270B1284A775230C9E
:1083A0001284CEE53175F00A84F52885F0298528F8
:1083B000271284A705231284CE8529271284A705B6
:1083C0002305231284CE7527101284A7C083C08290
:1083D000C0E0C0F0C001C002C003C004C005C006B8
:1083E000C00702847075220175230575200612846A
:1083F000EC1284CE90851985822585832675270009
:1084000075240A1284B9C083C082C0E0C0F0C001E4
:10841000C002C003C004C005C006C0070284707556
:1084200022017523017520061284EC1284CE9085FA
:10843000308582258583267527007524121284B91C
:10844000C083C082C0E0C0F0C001C002C003C0044D
:10845000C005C006C007028470D007D006D005D082
:1084600004D003D002D001D0F0D0E0D082D083225B
:10847000C0D0D2D4D2D3790074EFF8091285425417
:108480001F641F7007E8D313501980EE7A00134061
:10849000030A80FAEA75F005A4291285E812854DD1
:1084A0000284A3D0D080B2AD27852582852683EDB6
:1084B00093F5211284F60DED22AD278525828526C0
:1084C00083ED93F5211284F60DEDB524EE22E5221D
:1084D000B4010C74802523F5201284EC0284EBB4E3
:1084E000020974C02523F5201284EC221285009025
:1084F000FFE0E520F02212850090FFE1E521F02267
:1085000090FFE2E020E7F92230313233343536375C
:1085100038393A2D44434F524D456E7465722050A0
:1085200057212152452D456E7465722050572121E7
:10853000446F6F72204C6F636B20456E74657220C0
:10854000505700F890FFF0F090FFF1E02290FFC14B
:10855000F0F536E532B40014E536B40B037532019C
:10856000B40A067532100285E70285E7B40144E5D6
:1085700036B40B03753200B40A067532100285E773
:10858000B40C0505330285E7B40D0505340285E713
:10859000B40E0505350285E7B41705052F0285E7FA
:1085A000B4160505300285E7B4150505310285E7E7
:1085B0000285E7B41017E536B40B06753200028564
:1085C000E7B40A067532110285E70285E7B4111790
:1085D000E536B40B067532000285E7B40A0675323B
:1085E000100285E70285E722832217161514130C63
:1085F0000D0E0F1108090A0B1204050607100001E1
:02860000020373
:00000001FF
