:1080000012805A7A0879FF78E0D8FED9FADAF6AC0D
:10801000D97B02DBFEDCFABD590CBE5914BF232408
:1080200012805A028003ED2401D4FD12807A02806E
:1080300003EE2401D4FE12806D128075740012804C
:108040007A028003EF2401D4FF12806B12807074D7
:108050000012807512807A02800312806974001207
:10806000807012807512807A227F007E007D00224F
:1080700090FFC3F02290FFC2F02290FFC1F0128067
:108080008222C083C082C0E0C005C006C007128043
:108090009ED007D006D005D0E0D082D083227520B4
:1080A0003812820675200E12820675200112820691
:1080B0007520061282068F2A8E2B8D2C7522017553
:1080C00023061281E875200612820690822285829C
:1080D00025858326752402E52A75F01084F5288508
:1080E000F0298528271281D605231281E8852927C2
:1080F0001281D605231281E875270A1281D67523CD
:10810000091281E8E52B75F01084F52885F02985A2
:1081100028271281D605231281E88529271281D6C6
:1081200005231281E875270A1281D675230C128166
:10813000E8E52C75F01084F52885F02985282712AC
:1081400081D605231281E88529271281D67522025E
:108150007523061281E8752F10753006753115E507
:108160002F75F00A84F52885F0298528271281D6F5
:1081700005231281E88529271281D605231281E87B
:1081800075270B1281D67523091281E8E53075F049
:108190000A84F52885F0298528271281D60523121F
:1081A00081E88529271281D605231281E875270BDE
:1081B0001281D675230C1281E8E53175F00A84F539
:1081C0002885F0298528271281D605231281E88584
:1081D00029271281D622AD27852582852683ED9316
:1081E000F5211282100DED22E522B4010C748025D8
:1081F00023F520128206028205B4020974C02523E9
:10820000F5201282062212821A90FFE0E520F02269
:1082100012821A90FFE1E521F02290FFE2E020E7D0
:0E822000F922303132333435363738393A2DC1
:00000001FF
