:1080000075891175A882758130752C007528897560
:108010002900752E70752A00752B00752D001283AE
:108020000B12835BB410051280A780F2B4170512FF
:10803000825D80EAB4140512818D80E2B4160512C7
:10804000821180DAB4180280BDB413051282C68092
:10805000CD74F012832DC28CD028D02930281485FD
:10806000E02D85832A85822B85D02C85812E85263F
:10807000818033C0E0C083C08274FE90FFF0F09036
:10808000FFF1E0B4EF09908006C082C08380171230
:1080900082BB60CBD082D083D0E0C029C028758C51
:1080A000FF758AFFD28C32128319752189752000E1
:1080B00012817912835BB411031280DAB4150312B2
:1080C00080DAB4120122B41000500AF5221281495C
:1080D00012817980DE74F112832D852082852183BF
:1080E000E493F52312818612835BB4110812812078
:1080F00012812A80E5B4150812812012813B80DAB2
:10810000B41206128120741222B41000500DF5240E
:1081100012816912818612835B80CF74F112832DE4
:10812000852082852183E523F022E52004F520B413
:108130000005E52104F52112817922E52014F520BE
:10814000B4FF02152112817922E521540FC4F521D3
:10815000E52054F0C42521F521E520540FC4F52075
:10816000E522540F2520F52022E523540FC4F523E2
:10817000E524540F2523F52322E52090FFC2F0E5E6
:108180002190FFC3F022E52390FFC1F02212831952
:10819000752000317912835BB410005009F522126A
:1081A00081FC317980EFB411031281BBB415031245
:1081B00081BBB412012274F312832DC0D0D2D4D269
:1081C000D3A8208623318612835BB4110712820C58
:1081D000312A80EDB4150712820C313B80E3B412D2
:1081E0000612820CD0D022B41000500BF524316955
:1081F000318612835B80D374F312832DE520540FF4
:10820000C4F520E522540F2520F52022A820A6231E
:1082100022128319752000752100317912824F12C4
:10822000835BB41000500BF5223149317912824F33
:1082300080EDB41107312A12824F80E3B415073163
:108240003B12824F80D9B412012274F212832D8521
:108250002183852082740093F523318622128319AD
:1082600012829412835BB41000500EF522314985BE
:108270002128852029317980EAB41705128294805B
:10828000E2B41107D22812829D80D8B41201227460
:10829000F412832D852821852920317922E52D8529
:1082A0002CD0852A83852B82858126852E81C02925
:1082B000C028758CFF758AFED28C22E52965207056
:1082C00004E528652122128319519412835BB410AE
:1082D00000500EF5223149852128852029317980E9
:1082E000EAB41206C228519D8018B4111012835BA3
:1082F000B410005008F5223149317980F0B41206EB
:1083000080E212835B2274F512832D752180752023
:108310005175230031793186227520FF7521FF7553
:1083200022007523FF7524003179318622C0D0D216
:10833000D3D2D4F5277905710B8527233186128393
:10834000537119128353D9EFE41283A1B4FFE6D01D
:10835000D001067810128398D8FB22C0D0D2D4D294
:10836000D312839874001283A164FF70F71283986C
:10837000790074EFF8091283A164FF7007E8D31342
:1083800050EE80F07A001340030A80FAEA75F00597
:10839000A4291283AAD0D0227F207EF0DEFEDFFA4D
:1083A0002290FFF0F090FFF1E022832217151614BF
:1083B000130C0D0E0F1108090A0B12040506071005
:0583C00000010203189A
:108900001289477802D8FEBD590BBE5911BF2321E9
:108910003147028903ED2401D4FD316780E5EE245F
:1089200001D4FE12895A1289627400128967028981
:1089300003EF2401D4FF12895812895D7400128953
:1089400062128967028903128956740012895D12C6
:108950008962128967227F007E007D002290FFC31A
:0C896000F02290FFC2F02290FFC1F02234
:039F0B000280567B
:00000001FF
