:108000007581607532807531517530001280C412EF
:10801000808D20E40DF53312806A1280C41280270F
:1080200080ED12803680E812806174001280BBF40B
:1080300070F8128061227C05753000753100753250
:10804000001280C47B0A128061DBFB7530FF753142
:10805000FF7532FF1280C47B0A128061DBFBDCD823
:1080600022782079FFD9FED8FA22E532C4F532E52C
:1080700031C4F531E530C4F530E5317832D6F5312B
:10808000E5307831D6F530E5337830D622C0D0D21D
:10809000D4D2D3790074EFD3F8091280BBB4FF07B0
:1080A000E8D31350EE80F17A001350030A80FAEA05
:1080B00075F005A4291280D7D0D02290FFF0F0905F
:1080C000FFF1E02290FFC1E530F090FFC2E531F012
:1080D00090FFC3E532F022832217161514130C0DFE
:1080E0000E0F1108090A0B12040506071000010201
:0280F000031873
:00000001FF
