:1080000075203812807D75200E12807D752001123A
:10801000807D75200612807D7522017523021280F5
:108020005F90809985822585832675240E12804A6B
:1080300075220275230212805F9080A785822585B4
:10804000832675240E12804A80FE7D008525828558
:108050002683ED93F5211280870DEDB524EE22E500
:1080600022B4010C74802523F52012807D02807CCF
:10807000B4020974C02523F52012807D221280915C
:1080800090FFE0E520F02212809190FFE1E521F0E1
:108090002290FFE2E020E7F922444F20594F555249
:1080A00020424553542021594F552043414E2044EE
:0580B0004F204954219E
:00000001FF
