:1080000012803E75220175230112807C1280577503
:10801000220275230112807C12805775220175237C
:108020001412807C12805775220275231412807CF2
:1080300012805775201C12809A1280C380F575201B
:108040003812809A75200E12809A75200112809A3B
:1080500075200612809A229080B685822585832617
:1080600075240D128067227D00852582852683ED8B
:1080700093F5211280A40DEDB524EE22E522B40182
:108080000C74802523F52012809A028099B402098D
:1080900074C02523F52012809A221280AE90FFE052
:1080A000E520F0221280AE90FFE1E521F02290FF62
:1080B000E2E020E7F922444F20594F555220424533
:1080C0005354217F037EFF7DFFDDFEDEFADFF622C3
:00000001FF
