:1080000012802E7C00752040128070128047E5207F
:1080100004F5200CBC10F175220175230512805265
:1080200075210012807A75210112807A80FE7520F8
:108030003812807075200E128070752001128070C9
:108040007520061280702290808CEC93F5211280AE
:108050007A22E522B4010C74802523F52012807069
:1080600002806FB4020974C02523F52012807022AB
:1080700012808490FFE0E520F02212808490FFE1DE
:10808000E521F02290FFE2E020E7F922000915093E
:0C80900000101E00001E02001F0404006F
:00000001FF
