:1080000090FFFF7401F090FFD0E0F812801312800F
:108010008980EDC3E8B400047590FF22B4100475A4
:1080200090FE225005C37590FE22B420047590FC8A
:10803000225005C37590FC22B430047590F822508C
:1080400005C37590F822B440047590F0225005C322
:108050007590F022B450047590E0225005C37590DD
:10806000E022B460047590C0225005C37590C02210
:10807000B47004759080225005C375908022B4FFBF
:108080000475900022759080227EFF7FFFDFFEDE68
:02809000FA22D2
:00000001FF
